{
  "address": "0xADfd657f4687607Fa25bCAe0b45497c73f4E401F",
  "abi": [
    {
      "inputs": [
        {
          "internalType": "contract IWETH",
          "name": "_weth",
          "type": "address"
        }
      ],
      "stateMutability": "nonpayable",
      "type": "constructor"
    },
    {
      "anonymous": false,
      "inputs": [
        {
          "indexed": true,
          "internalType": "address",
          "name": "previousOwner",
          "type": "address"
        },
        {
          "indexed": true,
          "internalType": "address",
          "name": "newOwner",
          "type": "address"
        }
      ],
      "name": "OwnershipTransferred",
      "type": "event"
    },
    {
      "anonymous": false,
      "inputs": [
        {
          "indexed": false,
          "internalType": "address",
          "name": "account",
          "type": "address"
        }
      ],
      "name": "Paused",
      "type": "event"
    },
    {
      "anonymous": false,
      "inputs": [
        {
          "indexed": false,
          "internalType": "address",
          "name": "account",
          "type": "address"
        }
      ],
      "name": "Unpaused",
      "type": "event"
    },
    {
      "inputs": [
        {
          "internalType": "contract IArrakisVaultV1",
          "name": "pool",
          "type": "address"
        },
        {
          "internalType": "uint256",
          "name": "amount0Max",
          "type": "uint256"
        },
        {
          "internalType": "uint256",
          "name": "amount1Max",
          "type": "uint256"
        },
        {
          "internalType": "uint256",
          "name": "amount0Min",
          "type": "uint256"
        },
        {
          "internalType": "uint256",
          "name": "amount1Min",
          "type": "uint256"
        },
        {
          "internalType": "address",
          "name": "receiver",
          "type": "address"
        }
      ],
      "name": "addLiquidity",
      "outputs": [
        {
          "internalType": "uint256",
          "name": "amount0",
          "type": "uint256"
        },
        {
          "internalType": "uint256",
          "name": "amount1",
          "type": "uint256"
        },
        {
          "internalType": "uint256",
          "name": "mintAmount",
          "type": "uint256"
        }
      ],
      "stateMutability": "nonpayable",
      "type": "function"
    },
    {
      "inputs": [
        {
          "internalType": "contract IGauge",
          "name": "gauge",
          "type": "address"
        },
        {
          "internalType": "uint256",
          "name": "amount0Max",
          "type": "uint256"
        },
        {
          "internalType": "uint256",
          "name": "amount1Max",
          "type": "uint256"
        },
        {
          "internalType": "uint256",
          "name": "amount0Min",
          "type": "uint256"
        },
        {
          "internalType": "uint256",
          "name": "amount1Min",
          "type": "uint256"
        },
        {
          "internalType": "address",
          "name": "receiver",
          "type": "address"
        }
      ],
      "name": "addLiquidityAndStake",
      "outputs": [
        {
          "internalType": "uint256",
          "name": "amount0",
          "type": "uint256"
        },
        {
          "internalType": "uint256",
          "name": "amount1",
          "type": "uint256"
        },
        {
          "internalType": "uint256",
          "name": "mintAmount",
          "type": "uint256"
        }
      ],
      "stateMutability": "nonpayable",
      "type": "function"
    },
    {
      "inputs": [
        {
          "internalType": "contract IArrakisVaultV1",
          "name": "pool",
          "type": "address"
        },
        {
          "internalType": "uint256",
          "name": "amount0Max",
          "type": "uint256"
        },
        {
          "internalType": "uint256",
          "name": "amount1Max",
          "type": "uint256"
        },
        {
          "internalType": "uint256",
          "name": "amount0Min",
          "type": "uint256"
        },
        {
          "internalType": "uint256",
          "name": "amount1Min",
          "type": "uint256"
        },
        {
          "internalType": "address",
          "name": "receiver",
          "type": "address"
        }
      ],
      "name": "addLiquidityETH",
      "outputs": [
        {
          "internalType": "uint256",
          "name": "amount0",
          "type": "uint256"
        },
        {
          "internalType": "uint256",
          "name": "amount1",
          "type": "uint256"
        },
        {
          "internalType": "uint256",
          "name": "mintAmount",
          "type": "uint256"
        }
      ],
      "stateMutability": "payable",
      "type": "function"
    },
    {
      "inputs": [
        {
          "internalType": "contract IGauge",
          "name": "gauge",
          "type": "address"
        },
        {
          "internalType": "uint256",
          "name": "amount0Max",
          "type": "uint256"
        },
        {
          "internalType": "uint256",
          "name": "amount1Max",
          "type": "uint256"
        },
        {
          "internalType": "uint256",
          "name": "amount0Min",
          "type": "uint256"
        },
        {
          "internalType": "uint256",
          "name": "amount1Min",
          "type": "uint256"
        },
        {
          "internalType": "address",
          "name": "receiver",
          "type": "address"
        }
      ],
      "name": "addLiquidityETHAndStake",
      "outputs": [
        {
          "internalType": "uint256",
          "name": "amount0",
          "type": "uint256"
        },
        {
          "internalType": "uint256",
          "name": "amount1",
          "type": "uint256"
        },
        {
          "internalType": "uint256",
          "name": "mintAmount",
          "type": "uint256"
        }
      ],
      "stateMutability": "payable",
      "type": "function"
    },
    {
      "inputs": [],
      "name": "initialize",
      "outputs": [],
      "stateMutability": "nonpayable",
      "type": "function"
    },
    {
      "inputs": [],
      "name": "owner",
      "outputs": [
        {
          "internalType": "address",
          "name": "",
          "type": "address"
        }
      ],
      "stateMutability": "view",
      "type": "function"
    },
    {
      "inputs": [],
      "name": "pause",
      "outputs": [],
      "stateMutability": "nonpayable",
      "type": "function"
    },
    {
      "inputs": [],
      "name": "paused",
      "outputs": [
        {
          "internalType": "bool",
          "name": "",
          "type": "bool"
        }
      ],
      "stateMutability": "view",
      "type": "function"
    },
    {
      "inputs": [
        {
          "internalType": "contract IArrakisVaultV1",
          "name": "pool",
          "type": "address"
        },
        {
          "internalType": "uint256",
          "name": "burnAmount",
          "type": "uint256"
        },
        {
          "internalType": "uint256",
          "name": "amount0Min",
          "type": "uint256"
        },
        {
          "internalType": "uint256",
          "name": "amount1Min",
          "type": "uint256"
        },
        {
          "internalType": "address",
          "name": "receiver",
          "type": "address"
        }
      ],
      "name": "removeLiquidity",
      "outputs": [
        {
          "internalType": "uint256",
          "name": "amount0",
          "type": "uint256"
        },
        {
          "internalType": "uint256",
          "name": "amount1",
          "type": "uint256"
        },
        {
          "internalType": "uint128",
          "name": "liquidityBurned",
          "type": "uint128"
        }
      ],
      "stateMutability": "nonpayable",
      "type": "function"
    },
    {
      "inputs": [
        {
          "internalType": "contract IGauge",
          "name": "gauge",
          "type": "address"
        },
        {
          "internalType": "uint256",
          "name": "burnAmount",
          "type": "uint256"
        },
        {
          "internalType": "uint256",
          "name": "amount0Min",
          "type": "uint256"
        },
        {
          "internalType": "uint256",
          "name": "amount1Min",
          "type": "uint256"
        },
        {
          "internalType": "address",
          "name": "receiver",
          "type": "address"
        }
      ],
      "name": "removeLiquidityAndUnstake",
      "outputs": [
        {
          "internalType": "uint256",
          "name": "amount0",
          "type": "uint256"
        },
        {
          "internalType": "uint256",
          "name": "amount1",
          "type": "uint256"
        },
        {
          "internalType": "uint128",
          "name": "liquidityBurned",
          "type": "uint128"
        }
      ],
      "stateMutability": "nonpayable",
      "type": "function"
    },
    {
      "inputs": [
        {
          "internalType": "contract IArrakisVaultV1",
          "name": "pool",
          "type": "address"
        },
        {
          "internalType": "uint256",
          "name": "burnAmount",
          "type": "uint256"
        },
        {
          "internalType": "uint256",
          "name": "amount0Min",
          "type": "uint256"
        },
        {
          "internalType": "uint256",
          "name": "amount1Min",
          "type": "uint256"
        },
        {
          "internalType": "address payable",
          "name": "receiver",
          "type": "address"
        }
      ],
      "name": "removeLiquidityETH",
      "outputs": [
        {
          "internalType": "uint256",
          "name": "amount0",
          "type": "uint256"
        },
        {
          "internalType": "uint256",
          "name": "amount1",
          "type": "uint256"
        },
        {
          "internalType": "uint128",
          "name": "liquidityBurned",
          "type": "uint128"
        }
      ],
      "stateMutability": "nonpayable",
      "type": "function"
    },
    {
      "inputs": [
        {
          "internalType": "contract IGauge",
          "name": "gauge",
          "type": "address"
        },
        {
          "internalType": "uint256",
          "name": "burnAmount",
          "type": "uint256"
        },
        {
          "internalType": "uint256",
          "name": "amount0Min",
          "type": "uint256"
        },
        {
          "internalType": "uint256",
          "name": "amount1Min",
          "type": "uint256"
        },
        {
          "internalType": "address payable",
          "name": "receiver",
          "type": "address"
        }
      ],
      "name": "removeLiquidityETHAndUnstake",
      "outputs": [
        {
          "internalType": "uint256",
          "name": "amount0",
          "type": "uint256"
        },
        {
          "internalType": "uint256",
          "name": "amount1",
          "type": "uint256"
        },
        {
          "internalType": "uint128",
          "name": "liquidityBurned",
          "type": "uint128"
        }
      ],
      "stateMutability": "nonpayable",
      "type": "function"
    },
    {
      "inputs": [],
      "name": "renounceOwnership",
      "outputs": [],
      "stateMutability": "nonpayable",
      "type": "function"
    },
    {
      "inputs": [
        {
          "internalType": "address",
          "name": "newOwner",
          "type": "address"
        }
      ],
      "name": "transferOwnership",
      "outputs": [],
      "stateMutability": "nonpayable",
      "type": "function"
    },
    {
      "inputs": [],
      "name": "unpause",
      "outputs": [],
      "stateMutability": "nonpayable",
      "type": "function"
    },
    {
      "inputs": [],
      "name": "weth",
      "outputs": [
        {
          "internalType": "contract IWETH",
          "name": "",
          "type": "address"
        }
      ],
      "stateMutability": "view",
      "type": "function"
    }
  ],
  "transactionHash": "0x0335f0e5c090525e8145a4273c916790039ecb782a2e695c35db3941fd76cb74",
  "args": [
    "0x0d500B1d8E8eF31E21C99d1Db9A6444d3ADf1270"
  ],
  "solcInputHash": "9e71325f24584290c9a0f25501b5c8c9",
  "bytecode": "0x60a06040523480156200001157600080fd5b50604051620026aa380380620026aa83398101604081905262000034916200004a565b60601b6001600160601b0319166080526200007a565b6000602082840312156200005c578081fd5b81516001600160a01b038116811462000073578182fd5b9392505050565b60805160601c6125d9620000d160003960008181610131015281816108a00152818161095301528181610cb701528181610d6a01528181611662015281816116a401528181611a470152611b0101526125d96000f3fe6080604052600436106100c35760003560e01c8063046e4922146100c85780633f4ba83a146101085780633fc8cef31461011f57806359f842b2146101605780635c975abb146101a45780635de56ba8146101c75780636469a868146101e75780636587e4ce146101fa578063715018a61461021a5780638129fc1c1461022f5780638456cb59146102445780638da5cb5b14610259578063b83a75b31461026e578063f2fde38b1461028e578063fb9f4789146102ae578063fbec41a8146102ce575b600080fd5b3480156100d457600080fd5b506100e86100e33660046122a1565b6102e1565b604080519384526020840192909252908201526060015b60405180910390f35b34801561011457600080fd5b5061011d610425565b005b34801561012b57600080fd5b506101537f000000000000000000000000000000000000000000000000000000000000000081565b6040516100ff919061235e565b34801561016c57600080fd5b5061018061017b3660046121ef565b61045e565b6040805193845260208401929092526001600160801b0316908201526060016100ff565b3480156101b057600080fd5b5060335460ff1660405190151581526020016100ff565b3480156101d357600080fd5b506101806101e23660046121ef565b61055f565b6100e86101f53660046122a1565b6109f4565b34801561020657600080fd5b506101806102153660046121ef565b610aa7565b34801561022657600080fd5b5061011d610e0a565b34801561023b57600080fd5b5061011d610e43565b34801561025057600080fd5b5061011d610f0c565b34801561026557600080fd5b50610153610f43565b34801561027a57600080fd5b506101806102893660046121ef565b610f52565b34801561029a57600080fd5b5061011d6102a9366004612197565b611185565b3480156102ba57600080fd5b506100e86102c9366004612244565b611222565b6100e86102dc366004612244565b611270565b60008060006102f260335460ff1690565b156103185760405162461bcd60e51b815260040161030f906123be565b60405180910390fd5b6000896001600160a01b0316632dc7d74c6040518163ffffffff1660e01b8152600401602060405180830381600087803b15801561035557600080fd5b505af1158015610369573d6000803e3d6000fd5b505050506040513d601f19601f8201168201806040525081019061038d91906121b3565b905061039d818a8a8a8a306112ac565b919550935091506103b86001600160a01b0382168b846114ad565b604051636e553f6560e01b81526001600160a01b038b1690636e553f65906103e69085908990600401612506565b600060405180830381600087803b15801561040057600080fd5b505af1158015610414573d6000803e3d6000fd5b505050505096509650969350505050565b3361042e610f43565b6001600160a01b0316146104545760405162461bcd60e51b815260040161030f90612418565b61045c611599565b565b600080600061046f60335460ff1690565b1561048c5760405162461bcd60e51b815260040161030f906123be565b6104a16001600160a01b03891633308a611626565b604051633f34d4cf60e21b81526001600160a01b0389169063fcd3533c906104cf908a908890600401612506565b606060405180830381600087803b1580156104e957600080fd5b505af11580156104fd573d6000803e3d6000fd5b505050506040513d601f19601f8201168201806040525081019061052191906122d1565b919450925090508583108015906105385750848210155b6105545760405162461bcd60e51b815260040161030f906123e8565b955095509592505050565b600080600061057060335460ff1690565b1561058d5760405162461bcd60e51b815260040161030f906123be565b604051634274debf60e11b81526001600160a01b038916906384e9bd7e906105b990339060040161235e565b600060405180830381600087803b1580156105d357600080fd5b505af11580156105e7573d6000803e3d6000fd5b50610601925050506001600160a01b03891633308a611626565b604051632e1a7d4d60e01b8152600481018890526001600160a01b03891690632e1a7d4d90602401600060405180830381600087803b15801561064357600080fd5b505af1158015610657573d6000803e3d6000fd5b505050506000886001600160a01b0316632dc7d74c6040518163ffffffff1660e01b8152600401602060405180830381600087803b15801561069857600080fd5b505af11580156106ac573d6000803e3d6000fd5b505050506040513d601f19601f820116820180604052508101906106d091906121b3565b604051633f34d4cf60e21b81529091506001600160a01b0382169063fcd3533c90610701908b903090600401612506565b606060405180830381600087803b15801561071b57600080fd5b505af115801561072f573d6000803e3d6000fd5b505050506040513d601f19601f8201168201806040525081019061075391906122d1565b9195509350915086841080159061076a5750858310155b6107865760405162461bcd60e51b815260040161030f906123e8565b6000816001600160a01b0316630dfe16816040518163ffffffff1660e01b815260040160206040518083038186803b1580156107c157600080fd5b505afa1580156107d5573d6000803e3d6000fd5b505050506040513d601f19601f820116820180604052508101906107f991906121b3565b90506000826001600160a01b031663d21220a76040518163ffffffff1660e01b815260040160206040518083038186803b15801561083657600080fd5b505afa15801561084a573d6000803e3d6000fd5b505050506040513d601f19601f8201168201806040525081019061086e91906121b3565b9050600061087c838361165e565b9050801561093757861561091857604051632e1a7d4d60e01b8152600481018890527f00000000000000000000000000000000000000000000000000000000000000006001600160a01b031690632e1a7d4d90602401600060405180830381600087803b1580156108ec57600080fd5b505af1158015610900573d6000803e3d6000fd5b50610918925050506001600160a01b03891688611730565b8515610932576109326001600160a01b038316898861184b565b6109e5565b85156109cb57604051632e1a7d4d60e01b8152600481018790527f00000000000000000000000000000000000000000000000000000000000000006001600160a01b031690632e1a7d4d90602401600060405180830381600087803b15801561099f57600080fd5b505af11580156109b3573d6000803e3d6000fd5b506109cb925050506001600160a01b03891687611730565b86156109e5576109e56001600160a01b038416898961184b565b50505050955095509592505050565b6000806000610a0560335460ff1690565b15610a225760405162461bcd60e51b815260040161030f906123be565b6000896001600160a01b0316632dc7d74c6040518163ffffffff1660e01b8152600401602060405180830381600087803b158015610a5f57600080fd5b505af1158015610a73573d6000803e3d6000fd5b505050506040513d601f19601f82011682018060405250810190610a9791906121b3565b905061039d818a8a8a8a3061186a565b6000806000610ab860335460ff1690565b15610ad55760405162461bcd60e51b815260040161030f906123be565b6000886001600160a01b0316630dfe16816040518163ffffffff1660e01b815260040160206040518083038186803b158015610b1057600080fd5b505afa158015610b24573d6000803e3d6000fd5b505050506040513d601f19601f82011682018060405250810190610b4891906121b3565b90506000896001600160a01b031663d21220a76040518163ffffffff1660e01b815260040160206040518083038186803b158015610b8557600080fd5b505afa158015610b99573d6000803e3d6000fd5b505050506040513d601f19601f82011682018060405250810190610bbd91906121b3565b90506000610bcb838361165e565b9050610be26001600160a01b038c1633308d611626565b604051633f34d4cf60e21b81526001600160a01b038c169063fcd3533c90610c10908d903090600401612506565b606060405180830381600087803b158015610c2a57600080fd5b505af1158015610c3e573d6000803e3d6000fd5b505050506040513d601f19601f82011682018060405250810190610c6291906122d1565b91975095509350888610801590610c795750878510155b610c955760405162461bcd60e51b815260040161030f906123e8565b8015610d4e578515610d2f57604051632e1a7d4d60e01b8152600481018790527f00000000000000000000000000000000000000000000000000000000000000006001600160a01b031690632e1a7d4d90602401600060405180830381600087803b158015610d0357600080fd5b505af1158015610d17573d6000803e3d6000fd5b50610d2f925050506001600160a01b03881687611730565b8415610d4957610d496001600160a01b038316888761184b565b610dfc565b8415610de257604051632e1a7d4d60e01b8152600481018690527f00000000000000000000000000000000000000000000000000000000000000006001600160a01b031690632e1a7d4d90602401600060405180830381600087803b158015610db657600080fd5b505af1158015610dca573d6000803e3d6000fd5b50610de2925050506001600160a01b03881686611730565b8515610dfc57610dfc6001600160a01b038416888861184b565b505050955095509592505050565b33610e13610f43565b6001600160a01b031614610e395760405162461bcd60e51b815260040161030f90612418565b61045c6000611be8565b600054610100900460ff16610e5e5760005460ff1615610e62565b303b155b610ec55760405162461bcd60e51b815260206004820152602e60248201527f496e697469616c697a61626c653a20636f6e747261637420697320616c72656160448201526d191e481a5b9a5d1a585b1a5e995960921b606482015260840161030f565b600054610100900460ff16158015610ee7576000805461ffff19166101011790555b610eef611c3a565b610ef7611c71565b8015610f09576000805461ff00191690555b50565b33610f15610f43565b6001600160a01b031614610f3b5760405162461bcd60e51b815260040161030f90612418565b61045c611ca8565b6065546001600160a01b031690565b6000806000610f6360335460ff1690565b15610f805760405162461bcd60e51b815260040161030f906123be565b604051634274debf60e11b81526001600160a01b038916906384e9bd7e90610fac90339060040161235e565b600060405180830381600087803b158015610fc657600080fd5b505af1158015610fda573d6000803e3d6000fd5b50610ff4925050506001600160a01b03891633308a611626565b604051632e1a7d4d60e01b8152600481018890526001600160a01b03891690632e1a7d4d90602401600060405180830381600087803b15801561103657600080fd5b505af115801561104a573d6000803e3d6000fd5b505050506000886001600160a01b0316632dc7d74c6040518163ffffffff1660e01b8152600401602060405180830381600087803b15801561108b57600080fd5b505af115801561109f573d6000803e3d6000fd5b505050506040513d601f19601f820116820180604052508101906110c391906121b3565b604051633f34d4cf60e21b81529091506001600160a01b0382169063fcd3533c906110f4908b908990600401612506565b606060405180830381600087803b15801561110e57600080fd5b505af1158015611122573d6000803e3d6000fd5b505050506040513d601f19601f8201168201806040525081019061114691906122d1565b9195509350915086841080159061115d5750858310155b6111795760405162461bcd60e51b815260040161030f906123e8565b50955095509592505050565b3361118e610f43565b6001600160a01b0316146111b45760405162461bcd60e51b815260040161030f90612418565b6001600160a01b0381166112195760405162461bcd60e51b815260206004820152602660248201527f4f776e61626c653a206e6577206f776e657220697320746865207a65726f206160448201526564647265737360d01b606482015260840161030f565b610f0981611be8565b600080600061123360335460ff1690565b156112505760405162461bcd60e51b815260040161030f906123be565b61125e8989898989896112ac565b92509250925096509650969350505050565b600080600061128160335460ff1690565b1561129e5760405162461bcd60e51b815260040161030f906123be565b61125e89898989898961186a565b600080600080896001600160a01b0316630dfe16816040518163ffffffff1660e01b815260040160206040518083038186803b1580156112eb57600080fd5b505afa1580156112ff573d6000803e3d6000fd5b505050506040513d601f19601f8201168201806040525081019061132391906121b3565b905060008a6001600160a01b031663d21220a76040518163ffffffff1660e01b815260040160206040518083038186803b15801561136057600080fd5b505afa158015611374573d6000803e3d6000fd5b505050506040513d601f19601f8201168201806040525081019061139891906121b3565b604051634c4a790d60e11b8152600481018c9052602481018b9052909150600090819081906001600160a01b038f1690639894f21a9060440160606040518083038186803b1580156113e957600080fd5b505afa1580156113fd573d6000803e3d6000fd5b505050506040513d601f19601f820116820180604052508101906114219190612315565b9250925092508a83101580156114375750898210155b6114535760405162461bcd60e51b815260040161030f9061244d565b821561146e5761146e6001600160a01b038616333086611626565b8115611489576114896001600160a01b038516333085611626565b6114968e8484848d611d00565b975097509750505050505096509650969350505050565b604051636eb1769f60e11b81523060048201526001600160a01b038381166024830152600091839186169063dd62ed3e9060440160206040518083038186803b1580156114f957600080fd5b505afa15801561150d573d6000803e3d6000fd5b505050506040513d601f19601f8201168201806040525081019061153191906122b9565b61153b919061251d565b90506115938463095ea7b360e01b858460405160240161155c929190612372565b60408051601f198184030181529190526020810180516001600160e01b03166001600160e01b031990931692909217909152611ec1565b50505050565b60335460ff166115e25760405162461bcd60e51b815260206004820152601460248201527314185d5cd8589b194e881b9bdd081c185d5cd95960621b604482015260640161030f565b6033805460ff191690557f5db9ee0a495bf2e6ff9c91a7834c1ba4fdd244a5e8aa4e537bd38aeae4b073aa335b60405161161c919061235e565b60405180910390a1565b6040516001600160a01b03808516602483015283166044820152606481018290526115939085906323b872dd60e01b9060840161155c565b60007f00000000000000000000000000000000000000000000000000000000000000006001600160a01b0316836001600160a01b031614156116a25750600161172a565b7f00000000000000000000000000000000000000000000000000000000000000006001600160a01b0316826001600160a01b031614156116e45750600061172a565b60405162461bcd60e51b815260206004820152601b60248201527a0dedcca40e0deded840e8ded6cadc40daeae6e840c4ca40ae8aa89602b1b604482015260640161030f565b92915050565b804710156117805760405162461bcd60e51b815260206004820152601d60248201527f416464726573733a20696e73756666696369656e742062616c616e6365000000604482015260640161030f565b6000826001600160a01b03168260405160006040518083038185875af1925050503d80600081146117cd576040519150601f19603f3d011682016040523d82523d6000602084013e6117d2565b606091505b50509050806118465760405162461bcd60e51b815260206004820152603a60248201527f416464726573733a20756e61626c6520746f2073656e642076616c75652c20726044820152791958da5c1a595b9d081b585e481a185d99481c995d995c9d195960321b606482015260840161030f565b505050565b6118468363a9059cbb60e01b848460405160240161155c929190612372565b600080600080896001600160a01b0316630dfe16816040518163ffffffff1660e01b815260040160206040518083038186803b1580156118a957600080fd5b505afa1580156118bd573d6000803e3d6000fd5b505050506040513d601f19601f820116820180604052508101906118e191906121b3565b905060008a6001600160a01b031663d21220a76040518163ffffffff1660e01b815260040160206040518083038186803b15801561191e57600080fd5b505afa158015611932573d6000803e3d6000fd5b505050506040513d601f19601f8201168201806040525081019061195691906121b3565b604051634c4a790d60e11b8152600481018c9052602481018b9052909150600090819081906001600160a01b038f1690639894f21a9060440160606040518083038186803b1580156119a757600080fd5b505afa1580156119bb573d6000803e3d6000fd5b505050506040513d601f19601f820116820180604052508101906119df9190612315565b9250925092508a83101580156119f55750898210155b611a115760405162461bcd60e51b815260040161030f9061244d565b611a1b858561165e565b15611ada57348d14611a3f5760405162461bcd60e51b815260040161030f90612478565b8215611aba577f00000000000000000000000000000000000000000000000000000000000000006001600160a01b031663d0e30db0846040518263ffffffff1660e01b81526004016000604051808303818588803b158015611aa057600080fd5b505af1158015611ab4573d6000803e3d6000fd5b50505050505b8115611ad557611ad56001600160a01b038516333085611626565b611b8f565b348c14611af95760405162461bcd60e51b815260040161030f90612478565b8115611b74577f00000000000000000000000000000000000000000000000000000000000000006001600160a01b031663d0e30db0836040518263ffffffff1660e01b81526004016000604051808303818588803b158015611b5a57600080fd5b505af1158015611b6e573d6000803e3d6000fd5b50505050505b8215611b8f57611b8f6001600160a01b038616333086611626565b611b9c8e8484848d611d00565b91995097509550611bad858561165e565b15611bd357878d1115611bce57611bce611bc7898f612535565b3390611730565b610414565b868c111561041457610414611bc7888e612535565b606580546001600160a01b038381166001600160a01b0319831681179093556040519116919082907f8be0079c531659141344cd1fd0a4f28419497f9722a3daafe3b4186f6b6457e090600090a35050565b600054610100900460ff16611c615760405162461bcd60e51b815260040161030f906124bb565b611c69611f93565b61045c611fba565b600054610100900460ff16611c985760405162461bcd60e51b815260040161030f906124bb565b611ca0611f93565b61045c611fed565b60335460ff1615611ccb5760405162461bcd60e51b815260040161030f906123be565b6033805460ff191660011790557f62e78cea01bee320cd4e420270b5ea74000d11b0c9f74754ebdbfc544b05a25861160f3390565b600080808615611d9057611d9088888a6001600160a01b0316630dfe16816040518163ffffffff1660e01b815260040160206040518083038186803b158015611d4857600080fd5b505afa158015611d5c573d6000803e3d6000fd5b505050506040513d601f19601f82011682018060405250810190611d8091906121b3565b6001600160a01b031691906114ad565b8515611dd457611dd488878a6001600160a01b031663d21220a76040518163ffffffff1660e01b815260040160206040518083038186803b158015611d4857600080fd5b6040516394bf804d60e01b81526001600160a01b038916906394bf804d90611e029088908890600401612506565b606060405180830381600087803b158015611e1c57600080fd5b505af1158015611e30573d6000803e3d6000fd5b505050506040513d601f19601f82011682018060405250810190611e5491906122d1565b5090935091508683148015611e6857508582145b611eb35760405162461bcd60e51b815260206004820152601c60248201527b1d5b995e1c1958dd195908185b5bdd5b9d1cc819195c1bdcda5d195960221b604482015260640161030f565b849050955095509592505050565b6000611f16826040518060400160405280602081526020017f5361666545524332303a206c6f772d6c6576656c2063616c6c206661696c6564815250856001600160a01b031661201d9092919063ffffffff16565b8051909150156118465780806020019051810190611f3491906121cf565b6118465760405162461bcd60e51b815260206004820152602a60248201527f5361666545524332303a204552433230206f7065726174696f6e20646964206e6044820152691bdd081cdd58d8d9595960b21b606482015260840161030f565b600054610100900460ff1661045c5760405162461bcd60e51b815260040161030f906124bb565b600054610100900460ff16611fe15760405162461bcd60e51b815260040161030f906124bb565b6033805460ff19169055565b600054610100900460ff166120145760405162461bcd60e51b815260040161030f906124bb565b61045c33611be8565b606061202c8484600085612036565b90505b9392505050565b6060824710156120975760405162461bcd60e51b815260206004820152602660248201527f416464726573733a20696e73756666696369656e742062616c616e636520666f6044820152651c8818d85b1b60d21b606482015260840161030f565b843b6120e55760405162461bcd60e51b815260206004820152601d60248201527f416464726573733a2063616c6c20746f206e6f6e2d636f6e7472616374000000604482015260640161030f565b600080866001600160a01b031685876040516121019190612342565b60006040518083038185875af1925050503d806000811461213e576040519150601f19603f3d011682016040523d82523d6000602084013e612143565b606091505b509150915061215382828661215e565b979650505050505050565b6060831561216d57508161202f565b82511561217d5782518084602001fd5b8160405162461bcd60e51b815260040161030f919061238b565b6000602082840312156121a8578081fd5b813561202f8161258e565b6000602082840312156121c4578081fd5b815161202f8161258e565b6000602082840312156121e0578081fd5b8151801515811461202f578182fd5b600080600080600060a08688031215612206578081fd5b85356122118161258e565b945060208601359350604086013592506060860135915060808601356122368161258e565b809150509295509295909350565b60008060008060008060c0878903121561225c578081fd5b86356122678161258e565b95506020870135945060408701359350606087013592506080870135915060a08701356122938161258e565b809150509295509295509295565b60008060008060008060c0878903121561225c578384fd5b6000602082840312156122ca578081fd5b5051919050565b6000806000606084860312156122e5578081fd5b83516020850151604086015191945092506001600160801b038116811461230a578182fd5b809150509250925092565b600080600060608486031215612329578081fd5b8351925060208401519150604084015190509250925092565b6000825161235481846020870161254c565b9190910192915050565b6001600160a01b0391909116815260200190565b6001600160a01b03929092168252602082015260400190565b60208152600082518060208401526123aa81604085016020870161254c565b601f01601f19169190910160400192915050565b60208082526010908201526f14185d5cd8589b194e881c185d5cd95960821b604082015260600190565b60208082526016908201527572656365697665642062656c6f77206d696e696d756d60501b604082015260600190565b6020808252818101527f4f776e61626c653a2063616c6c6572206973206e6f7420746865206f776e6572604082015260600190565b60208082526011908201527062656c6f77206d696e20616d6f756e747360781b604082015260600190565b60208082526023908201527f6d69736d61746368696e6720616d6f756e74206f662045544820666f7277617260408201526219195960ea1b606082015260800190565b6020808252602b908201527f496e697469616c697a61626c653a20636f6e7472616374206973206e6f74206960408201526a6e697469616c697a696e6760a81b606082015260800190565b9182526001600160a01b0316602082015260400190565b6000821982111561253057612530612578565b500190565b60008282101561254757612547612578565b500390565b60005b8381101561256757818101518382015260200161254f565b838111156115935750506000910152565b634e487b7160e01b600052601160045260246000fd5b6001600160a01b0381168114610f0957600080fdfea26469706673582212209a71d34f50d72dc3e40441d3ecb9d62cf2f08ad11543b05dbd88e20b94436b5364736f6c63430008040033",
  "devdoc": {
    "kind": "dev",
    "methods": {
      "addLiquidity(address,uint256,uint256,uint256,uint256,address)": {
        "params": {
          "amount0Max": "the maximum amount of token0 msg.sender willing to input",
          "amount0Min": "the minimum amount of token0 actually input (slippage protection)",
          "amount1Max": "the maximum amount of token1 msg.sender willing to input",
          "amount1Min": "the minimum amount of token1 actually input (slippage protection)",
          "pool": "address of ArrakisVaultV1 pool to add liquidity to",
          "receiver": "account to receive minted ArrakisVaultV1 tokens"
        },
        "returns": {
          "amount0": "amount of token0 transferred from msg.sender to mint `mintAmount`",
          "amount1": "amount of token1 transferred from msg.sender to mint `mintAmount`",
          "mintAmount": "amount of ArrakisVaultV1 tokens minted and transferred to `receiver`"
        }
      },
      "addLiquidityAndStake(address,uint256,uint256,uint256,uint256,address)": {
        "params": {
          "gauge": "the address of the LiquidityGauge corresponding to the ArrakisVaultV1"
        }
      },
      "addLiquidityETHAndStake(address,uint256,uint256,uint256,uint256,address)": {
        "params": {
          "gauge": "the address of the LiquidityGauge corresponding to the ArrakisVaultV1"
        }
      },
      "owner()": {
        "details": "Returns the address of the current owner."
      },
      "paused()": {
        "details": "Returns true if the contract is paused, and false otherwise."
      },
      "removeLiquidity(address,uint256,uint256,uint256,address)": {
        "params": {
          "amount0Min": "Minimum amount of token0 received after burn (slippage protection)",
          "amount1Min": "Minimum amount of token1 received after burn (slippage protection)",
          "burnAmount": "The number of ArrakisVaultV1 tokens to burn",
          "receiver": "The account to receive the underlying amounts of token0 and token1"
        },
        "returns": {
          "amount0": "actual amount of token0 transferred to receiver for burning `burnAmount`",
          "amount1": "actual amount of token1 transferred to receiver for burning `burnAmount`",
          "liquidityBurned": "amount of liquidity removed from the underlying Uniswap V3 position"
        }
      },
      "removeLiquidityAndUnstake(address,uint256,uint256,uint256,address)": {
        "params": {
          "gauge": "the address of the LiquidityGauge corresponding to the ArrakisVaultV1"
        }
      },
      "removeLiquidityETHAndUnstake(address,uint256,uint256,uint256,address)": {
        "params": {
          "gauge": "the address of the LiquidityGauge corresponding to the ArrakisVaultV1"
        }
      },
      "renounceOwnership()": {
        "details": "Leaves the contract without owner. It will not be possible to call `onlyOwner` functions anymore. Can only be called by the current owner. NOTE: Renouncing ownership will leave the contract without an owner, thereby removing any functionality that is only available to the owner."
      },
      "transferOwnership(address)": {
        "details": "Transfers ownership of the contract to a new account (`newOwner`). Can only be called by the current owner."
      }
    },
    "version": 1
  },
  "userdoc": {
    "kind": "user",
    "methods": {
      "addLiquidity(address,uint256,uint256,uint256,uint256,address)": {
        "notice": "addLiquidity adds liquidity to ArrakisVaultV1 pool of interest (mints LP tokens)"
      },
      "addLiquidityAndStake(address,uint256,uint256,uint256,uint256,address)": {
        "notice": "addLiquidityAndStake same as addLiquidity except Arrakis LP token is immediately staked in corresponding LiquidityGauge. New param:"
      },
      "addLiquidityETH(address,uint256,uint256,uint256,uint256,address)": {
        "notice": "addLiquidityETH same as addLiquidity but expects ETH transfers (instead of WETH)"
      },
      "addLiquidityETHAndStake(address,uint256,uint256,uint256,uint256,address)": {
        "notice": "addLiquidityETHAndStake same as addLiquidityETH except Arrakis LP token is immediately staked in corresponding LiquidityGauge. New param:"
      },
      "removeLiquidity(address,uint256,uint256,uint256,address)": {
        "notice": "removeLiquidity removes liquidity from a ArrakisVaultV1 pool and burns LP tokens"
      },
      "removeLiquidityAndUnstake(address,uint256,uint256,uint256,address)": {
        "notice": "removeLiquidityAndUnstake same as removeLiquidity except Arrakis LP token is first unstaked from liquidity gauge, and all rewards for msg.sender collected. New param:"
      },
      "removeLiquidityETH(address,uint256,uint256,uint256,address)": {
        "notice": "removeLiquidityETH same as removeLiquidity except this function unwraps WETH and sends ETH to receiver account"
      },
      "removeLiquidityETHAndUnstake(address,uint256,uint256,uint256,address)": {
        "notice": "removeLiquidityAndUnstake same as removeLiquidity except Arrakis LP token is first unstaked from liquidity gauge, and all rewards for msg.sender collected. New param:"
      }
    },
    "version": 1
  },
  "storageLayout": {
    "storage": [
      {
        "astId": 132,
        "contract": "contracts/ArrakisV1RouterStaking.sol:ArrakisV1RouterStaking",
        "label": "_initialized",
        "offset": 0,
        "slot": "0",
        "type": "t_bool"
      },
      {
        "astId": 135,
        "contract": "contracts/ArrakisV1RouterStaking.sol:ArrakisV1RouterStaking",
        "label": "_initializing",
        "offset": 1,
        "slot": "0",
        "type": "t_bool"
      },
      {
        "astId": 600,
        "contract": "contracts/ArrakisV1RouterStaking.sol:ArrakisV1RouterStaking",
        "label": "__gap",
        "offset": 0,
        "slot": "1",
        "type": "t_array(t_uint256)50_storage"
      },
      {
        "astId": 220,
        "contract": "contracts/ArrakisV1RouterStaking.sol:ArrakisV1RouterStaking",
        "label": "_paused",
        "offset": 0,
        "slot": "51",
        "type": "t_bool"
      },
      {
        "astId": 311,
        "contract": "contracts/ArrakisV1RouterStaking.sol:ArrakisV1RouterStaking",
        "label": "__gap",
        "offset": 0,
        "slot": "52",
        "type": "t_array(t_uint256)49_storage"
      },
      {
        "astId": 10,
        "contract": "contracts/ArrakisV1RouterStaking.sol:ArrakisV1RouterStaking",
        "label": "_owner",
        "offset": 0,
        "slot": "101",
        "type": "t_address"
      },
      {
        "astId": 124,
        "contract": "contracts/ArrakisV1RouterStaking.sol:ArrakisV1RouterStaking",
        "label": "__gap",
        "offset": 0,
        "slot": "102",
        "type": "t_array(t_uint256)49_storage"
      }
    ],
    "types": {
      "t_address": {
        "encoding": "inplace",
        "label": "address",
        "numberOfBytes": "20"
      },
      "t_array(t_uint256)49_storage": {
        "base": "t_uint256",
        "encoding": "inplace",
        "label": "uint256[49]",
        "numberOfBytes": "1568"
      },
      "t_array(t_uint256)50_storage": {
        "base": "t_uint256",
        "encoding": "inplace",
        "label": "uint256[50]",
        "numberOfBytes": "1600"
      },
      "t_bool": {
        "encoding": "inplace",
        "label": "bool",
        "numberOfBytes": "1"
      },
      "t_uint256": {
        "encoding": "inplace",
        "label": "uint256",
        "numberOfBytes": "32"
      }
    }
  }
}