{
  "address": "0x1c3cE7635178BFed8200BF5b41377966D0Bb6016",
  "abi": [
    {
      "inputs": [
        {
          "components": [
            {
              "internalType": "uint256",
              "name": "feeGrowthInsideLast",
              "type": "uint256"
            },
            {
              "internalType": "uint256",
              "name": "liquidity",
              "type": "uint256"
            },
            {
              "internalType": "int24",
              "name": "tick",
              "type": "int24"
            },
            {
              "internalType": "int24",
              "name": "lowerTick",
              "type": "int24"
            },
            {
              "internalType": "int24",
              "name": "upperTick",
              "type": "int24"
            },
            {
              "internalType": "bool",
              "name": "isZero",
              "type": "bool"
            },
            {
              "internalType": "contract IUniswapV3Pool",
              "name": "pool",
              "type": "address"
            }
          ],
          "internalType": "struct V3FeesResolver.ComputeFeesEarned",
          "name": "computeFeesEarned_",
          "type": "tuple"
        }
      ],
      "name": "computeFeesEarned",
      "outputs": [
        {
          "internalType": "uint256",
          "name": "fee",
          "type": "uint256"
        }
      ],
      "stateMutability": "view",
      "type": "function"
    },
    {
      "inputs": [
        {
          "internalType": "contract IArrakisVaultV1",
          "name": "vault",
          "type": "address"
        }
      ],
      "name": "getUncollectedFees",
      "outputs": [
        {
          "internalType": "uint256",
          "name": "fee0",
          "type": "uint256"
        },
        {
          "internalType": "uint256",
          "name": "fee1",
          "type": "uint256"
        }
      ],
      "stateMutability": "view",
      "type": "function"
    }
  ],
  "transactionHash": "0xd7a1d92223ab82d0ead768505453c627de7ea224fd65c9e5ef225c60a03fd1de",
  "args": [],
  "solcInputHash": "8d22e36ca32c07cfa0d7f0e7b31bbcfc",
  "bytecode": "0x608060405234801561001057600080fd5b50610cee806100206000396000f3fe608060405234801561001057600080fd5b50600436106100365760003560e01c8063107511881461003b5780639e50a79914610068575b600080fd5b61004e6100493660046109cb565b610089565b604080519283526020830191909152015b60405180910390f35b61007b610076366004610a1f565b6104eb565b60405190815260200161005f565b6000806000836001600160a01b03166316f0115b6040518163ffffffff1660e01b815260040160206040518083038186803b1580156100c757600080fd5b505afa1580156100db573d6000803e3d6000fd5b505050506040513d601f19601f820116820180604052508101906100ff91906109e7565b90506000846001600160a01b0316639b1344ac6040518163ffffffff1660e01b815260040160206040518083038186803b15801561013c57600080fd5b505afa158015610150573d6000803e3d6000fd5b505050506040513d601f19601f820116820180604052508101906101749190610a03565b90506000856001600160a01b031663727dd2286040518163ffffffff1660e01b815260040160206040518083038186803b1580156101b157600080fd5b505afa1580156101c5573d6000803e3d6000fd5b505050506040513d601f19601f820116820180604052508101906101e99190610a03565b90506000866001600160a01b031663df28408a6040518163ffffffff1660e01b815260040160206040518083038186803b15801561022657600080fd5b505afa15801561023a573d6000803e3d6000fd5b505050506040513d601f19601f8201168201806040525081019061025e91906109b3565b90506000846001600160a01b0316633850c7bd6040518163ffffffff1660e01b815260040160e06040518083038186803b15801561029b57600080fd5b505afa1580156102af573d6000803e3d6000fd5b505050506040513d601f19601f820116820180604052508101906102d39190610bc9565b50505050509150506000806000876001600160a01b031663514ea4bf866040518263ffffffff1660e01b815260040161030e91815260200190565b60a06040518083038186803b15801561032657600080fd5b505afa15801561033a573d6000803e3d6000fd5b505050506040513d601f19601f8201168201806040525081019061035e9190610b73565b509350509250925060006040518060e00160405280848152602001856001600160801b031681526020018660020b81526020018960020b81526020018860020b81526020016001151581526020018a6001600160a01b03168152509050816001600160801b03166103ce826104eb565b6103d89190610c5f565b9a50505050506000806000876001600160a01b031663514ea4bf866040518263ffffffff1660e01b815260040161041191815260200190565b60a06040518083038186803b15801561042957600080fd5b505afa15801561043d573d6000803e3d6000fd5b505050506040513d601f19601f820116820180604052508101906104619190610b73565b945050935050925060006040518060e00160405280848152602001856001600160801b031681526020018660020b81526020018960020b81526020018860020b81526020016000151581526020018a6001600160a01b03168152509050816001600160801b03166104d1826104eb565b6104db9190610c5f565b9950505050505050505050915091565b6000806000808460a0015115610699578460c001516001600160a01b031663f30583996040518163ffffffff1660e01b815260040160206040518083038186803b15801561053857600080fd5b505afa15801561054c573d6000803e3d6000fd5b505050506040513d601f19601f8201168201806040525081019061057091906109b3565b60c0860151606087015160405163f30dba9360e01b815260029190910b60048201529192506001600160a01b03169063f30dba93906024016101006040518083038186803b1580156105c157600080fd5b505afa1580156105d5573d6000803e3d6000fd5b505050506040513d601f19601f820116820180604052508101906105f99190610acd565b5050505060c089015160808a015160405163f30dba9360e01b815260029190910b60048201529297506001600160a01b0316935063f30dba939250506024016101006040518083038186803b15801561065157600080fd5b505afa158015610665573d6000803e3d6000fd5b505050506040513d601f19601f820116820180604052508101906106899190610acd565b5093975061083395505050505050565b8460c001516001600160a01b031663461413196040518163ffffffff1660e01b815260040160206040518083038186803b1580156106d657600080fd5b505afa1580156106ea573d6000803e3d6000fd5b505050506040513d601f19601f8201168201806040525081019061070e91906109b3565b60c0860151606087015160405163f30dba9360e01b815260029190910b60048201529192506001600160a01b03169063f30dba93906024016101006040518083038186803b15801561075f57600080fd5b505afa158015610773573d6000803e3d6000fd5b505050506040513d601f19601f820116820180604052508101906107979190610acd565b5050505060c089015160808a015160405163f30dba9360e01b815260029190910b60048201529197506001600160a01b0316935063f30dba93925060240190506101006040518083038186803b1580156107f057600080fd5b505afa158015610804573d6000803e3d6000fd5b505050506040513d601f19601f820116820180604052508101906108289190610acd565b509297505050505050505b6000856060015160020b866040015160020b12610851575082610856565b508281035b6000866080015160020b876040015160020b121561087557508261087a565b508282035b6020870151875183850383900391610898918303600160801b6108a4565b98975050505050505050565b6000808060001985870985870292508281108382030391505080600014156108de57600084116108d357600080fd5b508290049050610952565b8084116108ea57600080fd5b600084868809851960019081018716968790049682860381900495909211909303600082900391909104909201919091029190911760038402600290811880860282030280860282030280860282030280860282030280860282030280860290910302029150505b9392505050565b803561096481610c83565b919050565b805161096481610c83565b803561096481610c94565b803561096481610ca9565b80516001600160801b038116811461096457600080fd5b805161ffff8116811461096457600080fd5b6000602082840312156109c4578081fd5b5051919050565b6000602082840312156109dc578081fd5b813561095281610c94565b6000602082840312156109f8578081fd5b815161095281610c94565b600060208284031215610a14578081fd5b815161095281610ca9565b600060e08284031215610a30578081fd5b60405160e081016001600160401b0381118282101715610a5e57634e487b7160e01b83526041600452602483fd5b80604052508235815260208301356020820152610a7d6040840161097f565b6040820152610a8e6060840161097f565b6060820152610a9f6080840161097f565b6080820152610ab060a08401610959565b60a0820152610ac160c08401610974565b60c08201529392505050565b600080600080600080600080610100898b031215610ae9578384fd5b610af28961098a565b9750602089015180600f0b8114610b07578485fd5b80975050604089015195506060890151945060808901518060060b8114610b2c578485fd5b60a08a0151909450610b3d81610c94565b60c08a015190935063ffffffff81168114610b56578283fd5b9150610b6460e08a01610969565b90509295985092959890939650565b600080600080600060a08688031215610b8a578081fd5b610b938661098a565b94506020860151935060408601519250610baf6060870161098a565b9150610bbd6080870161098a565b90509295509295909350565b600080600080600080600060e0888a031215610be3578081fd5b8751610bee81610c94565b6020890151909750610bff81610ca9565b9550610c0d604089016109a1565b9450610c1b606089016109a1565b9350610c29608089016109a1565b925060a088015160ff81168114610c3e578182fd5b60c0890151909250610c4f81610c83565b8091505092959891949750929550565b60008219821115610c7e57634e487b7160e01b81526011600452602481fd5b500190565b8015158114610c9157600080fd5b50565b6001600160a01b0381168114610c9157600080fd5b8060020b8114610c9157600080fdfea2646970667358221220f11635128db9f9cfe916d386550e3703493389413170904a2e0124187ab5858464736f6c63430008040033",
  "devdoc": {
    "kind": "dev",
    "methods": {},
    "version": 1
  },
  "userdoc": {
    "kind": "user",
    "methods": {},
    "version": 1
  },
  "storageLayout": {
    "storage": [],
    "types": null
  }
}