{
  "address": "0x9dE3F4847186677E51CC9E39e07d30bd58927f6A",
  "abi": [
    {
      "inputs": [
        {
          "internalType": "contract IUniswapV3Factory",
          "name": "_factory",
          "type": "address"
        },
        {
          "internalType": "contract IWETH",
          "name": "_weth",
          "type": "address"
        },
        {
          "internalType": "address",
          "name": "_blacklisted",
          "type": "address"
        }
      ],
      "stateMutability": "nonpayable",
      "type": "constructor"
    },
    {
      "anonymous": false,
      "inputs": [
        {
          "indexed": true,
          "internalType": "address",
          "name": "previousOwner",
          "type": "address"
        },
        {
          "indexed": true,
          "internalType": "address",
          "name": "newOwner",
          "type": "address"
        }
      ],
      "name": "OwnershipTransferred",
      "type": "event"
    },
    {
      "anonymous": false,
      "inputs": [
        {
          "indexed": false,
          "internalType": "address",
          "name": "account",
          "type": "address"
        }
      ],
      "name": "Paused",
      "type": "event"
    },
    {
      "anonymous": false,
      "inputs": [
        {
          "indexed": false,
          "internalType": "address",
          "name": "account",
          "type": "address"
        }
      ],
      "name": "Unpaused",
      "type": "event"
    },
    {
      "inputs": [
        {
          "internalType": "contract IGUniPool",
          "name": "pool",
          "type": "address"
        },
        {
          "internalType": "uint256",
          "name": "amount0Max",
          "type": "uint256"
        },
        {
          "internalType": "uint256",
          "name": "amount1Max",
          "type": "uint256"
        },
        {
          "internalType": "uint256",
          "name": "amount0Min",
          "type": "uint256"
        },
        {
          "internalType": "uint256",
          "name": "amount1Min",
          "type": "uint256"
        },
        {
          "internalType": "address",
          "name": "receiver",
          "type": "address"
        }
      ],
      "name": "addLiquidity",
      "outputs": [
        {
          "internalType": "uint256",
          "name": "amount0",
          "type": "uint256"
        },
        {
          "internalType": "uint256",
          "name": "amount1",
          "type": "uint256"
        },
        {
          "internalType": "uint256",
          "name": "mintAmount",
          "type": "uint256"
        }
      ],
      "stateMutability": "nonpayable",
      "type": "function"
    },
    {
      "inputs": [
        {
          "internalType": "contract IGUniPool",
          "name": "pool",
          "type": "address"
        },
        {
          "internalType": "uint256",
          "name": "amount0Max",
          "type": "uint256"
        },
        {
          "internalType": "uint256",
          "name": "amount1Max",
          "type": "uint256"
        },
        {
          "internalType": "uint256",
          "name": "amount0Min",
          "type": "uint256"
        },
        {
          "internalType": "uint256",
          "name": "amount1Min",
          "type": "uint256"
        },
        {
          "internalType": "address",
          "name": "receiver",
          "type": "address"
        }
      ],
      "name": "addLiquidityETH",
      "outputs": [
        {
          "internalType": "uint256",
          "name": "amount0",
          "type": "uint256"
        },
        {
          "internalType": "uint256",
          "name": "amount1",
          "type": "uint256"
        },
        {
          "internalType": "uint256",
          "name": "mintAmount",
          "type": "uint256"
        }
      ],
      "stateMutability": "payable",
      "type": "function"
    },
    {
      "inputs": [],
      "name": "factory",
      "outputs": [
        {
          "internalType": "contract IUniswapV3Factory",
          "name": "",
          "type": "address"
        }
      ],
      "stateMutability": "view",
      "type": "function"
    },
    {
      "inputs": [],
      "name": "initialize",
      "outputs": [],
      "stateMutability": "nonpayable",
      "type": "function"
    },
    {
      "inputs": [],
      "name": "owner",
      "outputs": [
        {
          "internalType": "address",
          "name": "",
          "type": "address"
        }
      ],
      "stateMutability": "view",
      "type": "function"
    },
    {
      "inputs": [],
      "name": "pause",
      "outputs": [],
      "stateMutability": "nonpayable",
      "type": "function"
    },
    {
      "inputs": [],
      "name": "paused",
      "outputs": [
        {
          "internalType": "bool",
          "name": "",
          "type": "bool"
        }
      ],
      "stateMutability": "view",
      "type": "function"
    },
    {
      "inputs": [
        {
          "internalType": "contract IGUniPool",
          "name": "pool",
          "type": "address"
        },
        {
          "internalType": "uint256",
          "name": "amount0In",
          "type": "uint256"
        },
        {
          "internalType": "uint256",
          "name": "amount1In",
          "type": "uint256"
        },
        {
          "internalType": "bool",
          "name": "zeroForOne",
          "type": "bool"
        },
        {
          "internalType": "uint256",
          "name": "swapAmount",
          "type": "uint256"
        },
        {
          "internalType": "uint160",
          "name": "swapThreshold",
          "type": "uint160"
        },
        {
          "internalType": "uint256",
          "name": "amount0Min",
          "type": "uint256"
        },
        {
          "internalType": "uint256",
          "name": "amount1Min",
          "type": "uint256"
        },
        {
          "internalType": "address",
          "name": "receiver",
          "type": "address"
        }
      ],
      "name": "rebalanceAndAddLiquidity",
      "outputs": [
        {
          "internalType": "uint256",
          "name": "amount0",
          "type": "uint256"
        },
        {
          "internalType": "uint256",
          "name": "amount1",
          "type": "uint256"
        },
        {
          "internalType": "uint256",
          "name": "mintAmount",
          "type": "uint256"
        }
      ],
      "stateMutability": "nonpayable",
      "type": "function"
    },
    {
      "inputs": [
        {
          "internalType": "contract IGUniPool",
          "name": "pool",
          "type": "address"
        },
        {
          "internalType": "uint256",
          "name": "amount0In",
          "type": "uint256"
        },
        {
          "internalType": "uint256",
          "name": "amount1In",
          "type": "uint256"
        },
        {
          "internalType": "bool",
          "name": "zeroForOne",
          "type": "bool"
        },
        {
          "internalType": "uint256",
          "name": "swapAmount",
          "type": "uint256"
        },
        {
          "internalType": "uint160",
          "name": "swapThreshold",
          "type": "uint160"
        },
        {
          "internalType": "uint256",
          "name": "amount0Min",
          "type": "uint256"
        },
        {
          "internalType": "uint256",
          "name": "amount1Min",
          "type": "uint256"
        },
        {
          "internalType": "address",
          "name": "receiver",
          "type": "address"
        }
      ],
      "name": "rebalanceAndAddLiquidityETH",
      "outputs": [
        {
          "internalType": "uint256",
          "name": "amount0",
          "type": "uint256"
        },
        {
          "internalType": "uint256",
          "name": "amount1",
          "type": "uint256"
        },
        {
          "internalType": "uint256",
          "name": "mintAmount",
          "type": "uint256"
        }
      ],
      "stateMutability": "payable",
      "type": "function"
    },
    {
      "inputs": [
        {
          "internalType": "contract IGUniPool",
          "name": "pool",
          "type": "address"
        },
        {
          "internalType": "uint256",
          "name": "burnAmount",
          "type": "uint256"
        },
        {
          "internalType": "uint256",
          "name": "amount0Min",
          "type": "uint256"
        },
        {
          "internalType": "uint256",
          "name": "amount1Min",
          "type": "uint256"
        },
        {
          "internalType": "address",
          "name": "receiver",
          "type": "address"
        }
      ],
      "name": "removeLiquidity",
      "outputs": [
        {
          "internalType": "uint256",
          "name": "amount0",
          "type": "uint256"
        },
        {
          "internalType": "uint256",
          "name": "amount1",
          "type": "uint256"
        },
        {
          "internalType": "uint128",
          "name": "liquidityBurned",
          "type": "uint128"
        }
      ],
      "stateMutability": "nonpayable",
      "type": "function"
    },
    {
      "inputs": [
        {
          "internalType": "contract IGUniPool",
          "name": "pool",
          "type": "address"
        },
        {
          "internalType": "uint256",
          "name": "burnAmount",
          "type": "uint256"
        },
        {
          "internalType": "uint256",
          "name": "amount0Min",
          "type": "uint256"
        },
        {
          "internalType": "uint256",
          "name": "amount1Min",
          "type": "uint256"
        },
        {
          "internalType": "address payable",
          "name": "receiver",
          "type": "address"
        }
      ],
      "name": "removeLiquidityETH",
      "outputs": [
        {
          "internalType": "uint256",
          "name": "amount0",
          "type": "uint256"
        },
        {
          "internalType": "uint256",
          "name": "amount1",
          "type": "uint256"
        },
        {
          "internalType": "uint128",
          "name": "liquidityBurned",
          "type": "uint128"
        }
      ],
      "stateMutability": "nonpayable",
      "type": "function"
    },
    {
      "inputs": [],
      "name": "renounceOwnership",
      "outputs": [],
      "stateMutability": "nonpayable",
      "type": "function"
    },
    {
      "inputs": [
        {
          "internalType": "address",
          "name": "newOwner",
          "type": "address"
        }
      ],
      "name": "transferOwnership",
      "outputs": [],
      "stateMutability": "nonpayable",
      "type": "function"
    },
    {
      "inputs": [
        {
          "internalType": "int256",
          "name": "amount0Delta",
          "type": "int256"
        },
        {
          "internalType": "int256",
          "name": "amount1Delta",
          "type": "int256"
        },
        {
          "internalType": "bytes",
          "name": "",
          "type": "bytes"
        }
      ],
      "name": "uniswapV3SwapCallback",
      "outputs": [],
      "stateMutability": "nonpayable",
      "type": "function"
    },
    {
      "inputs": [],
      "name": "unpause",
      "outputs": [],
      "stateMutability": "nonpayable",
      "type": "function"
    },
    {
      "inputs": [],
      "name": "weth",
      "outputs": [
        {
          "internalType": "contract IWETH",
          "name": "",
          "type": "address"
        }
      ],
      "stateMutability": "view",
      "type": "function"
    }
  ],
  "transactionHash": "0x82df59fd41b6227064024e1e933c1f1b9a29b935f68308aacf0dfd300c4dba1b",
  "args": [
    "0x1F98431c8aD98523631AE4a59f267346ea31F984",
    "0xC02aaA39b223FE8D0A0e5C4F27eAD9083C756Cc2",
    "0x14E6D67F824C3a7b4329d3228807f8654294e4bd"
  ],
  "solcInputHash": "d3dcbc1f4fd9e00c525050ae04be0335",
  "bytecode": "0x60e06040523480156200001157600080fd5b50604051620032e6380380620032e683398101604081905262000034916200005b565b6001600160601b0319606092831b811660805292821b831660a052901b1660c052620000c7565b60008060006060848603121562000070578283fd5b83516200007d81620000ae565b60208501519093506200009081620000ae565b6040850151909250620000a381620000ae565b809150509250925092565b6001600160a01b0381168114620000c457600080fd5b50565b60805160601c60a05160601c60c05160601c61318b6200015b6000396000818161169a0152818161172801526117ca01526000818161024d0152610f5b015260008181610131015281816108860152818161093901528181610c0001528181610ca3015281816114bf0152818161157901528181611dc701528181611e090152818161221001526122e3015261318b6000f3fe6080604052600436106100c35760003560e01c806333f9ab55146100c85780633f4ba83a146101085780633fc8cef31461011f57806359f842b2146101605780635c975abb146101a45780636587e4ce146101c7578063715018a6146101e75780638129fc1c146101fc5780638456cb59146102115780638da5cb5b14610226578063c45a01551461023b578063dcdf72021461026f578063f2fde38b14610282578063fa461e33146102a2578063fb9f4789146102c2578063fbec41a8146102e2575b600080fd5b3480156100d457600080fd5b506100e86100e3366004612c43565b6102f5565b604080519384526020840192909252908201526060015b60405180910390f35b34801561011457600080fd5b5061011d610482565b005b34801561012b57600080fd5b506101537f000000000000000000000000000000000000000000000000000000000000000081565b6040516100ff9190612ee8565b34801561016c57600080fd5b5061018061017b366004612cd1565b6104bb565b6040805193845260208401929092526001600160801b0316908201526060016100ff565b3480156101b057600080fd5b5060335460ff1660405190151581526020016100ff565b3480156101d357600080fd5b506101806101e2366004612cd1565b61066a565b3480156101f357600080fd5b5061011d6109d9565b34801561020857600080fd5b5061011d610a12565b34801561021d57600080fd5b5061011d610adb565b34801561023257600080fd5b50610153610b12565b34801561024757600080fd5b506101537f000000000000000000000000000000000000000000000000000000000000000081565b6100e861027d366004612c43565b610b21565b34801561028e57600080fd5b5061011d61029d366004612bef565b610d27565b3480156102ae57600080fd5b5061011d6102bd366004612da6565b610dc4565b3480156102ce57600080fd5b506100e86102dd366004612d26565b611077565b6100e86102f0366004612d26565b6112ad565b600080600061030660335460ff1690565b1561032c5760405162461bcd60e51b815260040161032390612f62565b60405180910390fd5b6104188c8d6001600160a01b0316630dfe16816040518163ffffffff1660e01b815260040160206040518083038186803b15801561036957600080fd5b505afa15801561037d573d6000803e3d6000fd5b505050506040513d601f19601f820116820180604052508101906103a19190612c0b565b8e6001600160a01b031663d21220a76040518163ffffffff1660e01b815260040160206040518083038186803b1580156103da57600080fd5b505afa1580156103ee573d6000803e3d6000fd5b505050506040513d601f19601f820116820180604052508101906104129190612c0b565b87611671565b600080600061042b8f8f8f8f8f8f6118b2565b9250925092508883101580156104415750878210155b61045d5760405162461bcd60e51b815260040161032390612ff1565b61046a8f8484848b611b04565b95509550955050505099509950999650505050505050565b3361048b610b12565b6001600160a01b0316146104b15760405162461bcd60e51b815260040161032390612fbc565b6104b9611cc5565b565b60008060006104cc60335460ff1690565b156104e95760405162461bcd60e51b815260040161032390612f62565b61059788896001600160a01b0316630dfe16816040518163ffffffff1660e01b815260040160206040518083038186803b15801561052657600080fd5b505afa15801561053a573d6000803e3d6000fd5b505050506040513d601f19601f8201168201806040525081019061055e9190612c0b565b8a6001600160a01b031663d21220a76040518163ffffffff1660e01b815260040160206040518083038186803b1580156103da57600080fd5b6105ac6001600160a01b03891633308a611d52565b604051633f34d4cf60e21b81526001600160a01b0389169063fcd3533c906105da908a9088906004016130aa565b606060405180830381600087803b1580156105f457600080fd5b505af1158015610608573d6000803e3d6000fd5b505050506040513d601f19601f8201168201806040525081019061062c9190612e5b565b919450925090508583108015906106435750848210155b61065f5760405162461bcd60e51b815260040161032390612f8c565b955095509592505050565b600080600061067b60335460ff1690565b156106985760405162461bcd60e51b815260040161032390612f62565b6000886001600160a01b0316630dfe16816040518163ffffffff1660e01b815260040160206040518083038186803b1580156106d357600080fd5b505afa1580156106e7573d6000803e3d6000fd5b505050506040513d601f19601f8201168201806040525081019061070b9190612c0b565b90506000896001600160a01b031663d21220a76040518163ffffffff1660e01b815260040160206040518083038186803b15801561074857600080fd5b505afa15801561075c573d6000803e3d6000fd5b505050506040513d601f19601f820116820180604052508101906107809190612c0b565b905061078e8a838389611671565b600061079a8383611dc3565b90506107b16001600160a01b038c1633308d611d52565b604051633f34d4cf60e21b81526001600160a01b038c169063fcd3533c906107df908d9030906004016130aa565b606060405180830381600087803b1580156107f957600080fd5b505af115801561080d573d6000803e3d6000fd5b505050506040513d601f19601f820116820180604052508101906108319190612e5b565b919750955093508886108015906108485750878510155b6108645760405162461bcd60e51b815260040161032390612f8c565b801561091d5785156108fe57604051632e1a7d4d60e01b8152600481018790527f00000000000000000000000000000000000000000000000000000000000000006001600160a01b031690632e1a7d4d90602401600060405180830381600087803b1580156108d257600080fd5b505af11580156108e6573d6000803e3d6000fd5b506108fe925050506001600160a01b03881687611e95565b8415610918576109186001600160a01b0383168887611fb0565b6109cb565b84156109b157604051632e1a7d4d60e01b8152600481018690527f00000000000000000000000000000000000000000000000000000000000000006001600160a01b031690632e1a7d4d90602401600060405180830381600087803b15801561098557600080fd5b505af1158015610999573d6000803e3d6000fd5b506109b1925050506001600160a01b03881686611e95565b85156109cb576109cb6001600160a01b0384168888611fb0565b505050955095509592505050565b336109e2610b12565b6001600160a01b031614610a085760405162461bcd60e51b815260040161032390612fbc565b6104b96000611fcf565b600054610100900460ff16610a2d5760005460ff1615610a31565b303b155b610a945760405162461bcd60e51b815260206004820152602e60248201527f496e697469616c697a61626c653a20636f6e747261637420697320616c72656160448201526d191e481a5b9a5d1a585b1a5e995960921b6064820152608401610323565b600054610100900460ff16158015610ab6576000805461ffff19166101011790555b610abe612021565b610ac6612058565b8015610ad8576000805461ff00191690555b50565b33610ae4610b12565b6001600160a01b031614610b0a5760405162461bcd60e51b815260040161032390612fbc565b6104b961208f565b6065546001600160a01b031690565b6000806000610b3260335460ff1690565b15610b4f5760405162461bcd60e51b815260040161032390612f62565b610b8c8c8d6001600160a01b0316630dfe16816040518163ffffffff1660e01b815260040160206040518083038186803b15801561036957600080fd5b6000806000610b9f8f8f8f8f8f8f6120e7565b925092509250888310158015610bb55750878210155b610bd15760405162461bcd60e51b815260040161032390612ff1565b610bde8f8484848b611b04565b6040516370a0823160e01b815292985090965094506000906001600160a01b037f000000000000000000000000000000000000000000000000000000000000000016906370a0823190610c35903090600401612ee8565b60206040518083038186803b158015610c4d57600080fd5b505afa158015610c61573d6000803e3d6000fd5b505050506040513d601f19601f82011682018060405250810190610c859190612e43565b90508015610d1457604051632e1a7d4d60e01b8152600481018290527f00000000000000000000000000000000000000000000000000000000000000006001600160a01b031690632e1a7d4d90602401600060405180830381600087803b158015610cef57600080fd5b505af1158015610d03573d6000803e3d6000fd5b50610d149250339150839050611e95565b5050505099509950999650505050505050565b33610d30610b12565b6001600160a01b031614610d565760405162461bcd60e51b815260040161032390612fbc565b6001600160a01b038116610dbb5760405162461bcd60e51b815260206004820152602660248201527f4f776e61626c653a206e6577206f776e657220697320746865207a65726f206160448201526564647265737360d01b6064820152608401610323565b610ad881611fcf565b60003390506000816001600160a01b0316630dfe16816040518163ffffffff1660e01b815260040160206040518083038186803b158015610e0457600080fd5b505afa158015610e18573d6000803e3d6000fd5b505050506040513d601f19601f82011682018060405250810190610e3c9190612c0b565b90506000826001600160a01b031663d21220a76040518163ffffffff1660e01b815260040160206040518083038186803b158015610e7957600080fd5b505afa158015610e8d573d6000803e3d6000fd5b505050506040513d601f19601f82011682018060405250810190610eb19190612c0b565b90506000836001600160a01b031663ddca3f436040518163ffffffff1660e01b815260040160206040518083038186803b158015610eee57600080fd5b505afa158015610f02573d6000803e3d6000fd5b505050506040513d601f19601f82011682018060405250810190610f269190612e20565b604051630b4c774160e11b81526001600160a01b038581166004830152848116602483015262ffffff831660448301529192507f000000000000000000000000000000000000000000000000000000000000000090911690631698ee829060640160206040518083038186803b158015610f9f57600080fd5b505afa158015610fb3573d6000803e3d6000fd5b505050506040513d601f19601f82011682018060405250810190610fd79190612c0b565b6001600160a01b0316336001600160a01b03161461102e5760405162461bcd60e51b81526020600482015260146024820152731a5b9d985b1a59081d5b9a5cddd85c081c1bdbdb60621b6044820152606401610323565b60008813156110505761104b6001600160a01b038416338a611fb0565b61106d565b600087131561106d5761106d6001600160a01b0383163389611fb0565b5050505050505050565b600080600061108860335460ff1690565b156110a55760405162461bcd60e51b815260040161032390612f62565b6000896001600160a01b0316630dfe16816040518163ffffffff1660e01b815260040160206040518083038186803b1580156110e057600080fd5b505afa1580156110f4573d6000803e3d6000fd5b505050506040513d601f19601f820116820180604052508101906111189190612c0b565b905060008a6001600160a01b031663d21220a76040518163ffffffff1660e01b815260040160206040518083038186803b15801561115557600080fd5b505afa158015611169573d6000803e3d6000fd5b505050506040513d601f19601f8201168201806040525081019061118d9190612c0b565b905061119b8b838389611671565b604051634c4a790d60e11b8152600481018b9052602481018a9052600090819081906001600160a01b038f1690639894f21a9060440160606040518083038186803b1580156111e957600080fd5b505afa1580156111fd573d6000803e3d6000fd5b505050506040513d601f19601f820116820180604052508101906112219190612e9f565b9250925092508a83101580156112375750898210155b6112535760405162461bcd60e51b815260040161032390612ff1565b821561126e5761126e6001600160a01b038616333086611d52565b8115611289576112896001600160a01b038516333085611d52565b6112968e8484848d611b04565b975097509750505050505096509650969350505050565b60008060006112be60335460ff1690565b156112db5760405162461bcd60e51b815260040161032390612f62565b6000896001600160a01b0316630dfe16816040518163ffffffff1660e01b815260040160206040518083038186803b15801561131657600080fd5b505afa15801561132a573d6000803e3d6000fd5b505050506040513d601f19601f8201168201806040525081019061134e9190612c0b565b905060008a6001600160a01b031663d21220a76040518163ffffffff1660e01b815260040160206040518083038186803b15801561138b57600080fd5b505afa15801561139f573d6000803e3d6000fd5b505050506040513d601f19601f820116820180604052508101906113c39190612c0b565b90506113d18b838389611671565b604051634c4a790d60e11b8152600481018b9052602481018a9052600090819081906001600160a01b038f1690639894f21a9060440160606040518083038186803b15801561141f57600080fd5b505afa158015611433573d6000803e3d6000fd5b505050506040513d601f19601f820116820180604052508101906114579190612e9f565b9250925092508a831015801561146d5750898210155b6114895760405162461bcd60e51b815260040161032390612ff1565b6114938585611dc3565b1561155257348d146114b75760405162461bcd60e51b81526004016103239061301c565b8215611532577f00000000000000000000000000000000000000000000000000000000000000006001600160a01b031663d0e30db0846040518263ffffffff1660e01b81526004016000604051808303818588803b15801561151857600080fd5b505af115801561152c573d6000803e3d6000fd5b50505050505b811561154d5761154d6001600160a01b038516333085611d52565b611607565b348c146115715760405162461bcd60e51b81526004016103239061301c565b81156115ec577f00000000000000000000000000000000000000000000000000000000000000006001600160a01b031663d0e30db0836040518263ffffffff1660e01b81526004016000604051808303818588803b1580156115d257600080fd5b505af11580156115e6573d6000803e3d6000fd5b50505050505b8215611607576116076001600160a01b038616333086611d52565b6116148e8484848d611b04565b919950975095506116258585611dc3565b1561164b57828d11156116465761164661163f848f6130d9565b3390611e95565b611660565b818c11156116605761166061163f838e6130d9565b505050505096509650969350505050565b604051636eb1769f60e11b81526000906001600160a01b0385169063dd62ed3e906116c29085907f000000000000000000000000000000000000000000000000000000000000000090600401612efc565b60206040518083038186803b1580156116da57600080fd5b505afa1580156116ee573d6000803e3d6000fd5b505050506040513d601f19601f820116820180604052508101906117129190612e43565b90506000836001600160a01b031663dd62ed3e847f00000000000000000000000000000000000000000000000000000000000000006040518363ffffffff1660e01b8152600401611764929190612efc565b60206040518083038186803b15801561177c57600080fd5b505afa158015611790573d6000803e3d6000fd5b505050506040513d601f19601f820116820180604052508101906117b49190612e43565b90506000866001600160a01b031663dd62ed3e857f00000000000000000000000000000000000000000000000000000000000000006040518363ffffffff1660e01b8152600401611806929190612efc565b60206040518083038186803b15801561181e57600080fd5b505afa158015611832573d6000803e3d6000fd5b505050506040513d601f19601f820116820180604052508101906118569190612e43565b905082158015611864575081155b801561186e575080155b6118a95760405162461bcd60e51b815260206004820152600c60248201526b4e45454453205245564f4b4560a01b6044820152606401610323565b50505050505050565b600080600080896001600160a01b0316630dfe16816040518163ffffffff1660e01b815260040160206040518083038186803b1580156118f157600080fd5b505afa158015611905573d6000803e3d6000fd5b505050506040513d601f19601f820116820180604052508101906119299190612c0b565b905060008a6001600160a01b031663d21220a76040518163ffffffff1660e01b815260040160206040518083038186803b15801561196657600080fd5b505afa15801561197a573d6000803e3d6000fd5b505050506040513d601f19601f8201168201806040525081019061199e9190612c0b565b905089156119bb576119bb6001600160a01b03831633308d611d52565b88156119d6576119d66001600160a01b03821633308c611d52565b6119e28b89898961248c565b6040516370a0823160e01b81526000906001600160a01b038416906370a0823190611a11903090600401612ee8565b60206040518083038186803b158015611a2957600080fd5b505afa158015611a3d573d6000803e3d6000fd5b505050506040513d601f19601f82011682018060405250810190611a619190612e43565b90506000826001600160a01b03166370a08231306040518263ffffffff1660e01b8152600401611a919190612ee8565b60206040518083038186803b158015611aa957600080fd5b505afa158015611abd573d6000803e3d6000fd5b505050506040513d601f19601f82011682018060405250810190611ae19190612e43565b9050611aee8d83836125a4565b919f909e50909c509a5050505050505050505050565b600080808615611b9457611b9488888a6001600160a01b0316630dfe16816040518163ffffffff1660e01b815260040160206040518083038186803b158015611b4c57600080fd5b505afa158015611b60573d6000803e3d6000fd5b505050506040513d601f19601f82011682018060405250810190611b849190612c0b565b6001600160a01b03169190612720565b8515611bd857611bd888878a6001600160a01b031663d21220a76040518163ffffffff1660e01b815260040160206040518083038186803b158015611b4c57600080fd5b6040516394bf804d60e01b81526001600160a01b038916906394bf804d90611c0690889088906004016130aa565b606060405180830381600087803b158015611c2057600080fd5b505af1158015611c34573d6000803e3d6000fd5b505050506040513d601f19601f82011682018060405250810190611c589190612e5b565b5090935091508683148015611c6c57508582145b611cb75760405162461bcd60e51b815260206004820152601c60248201527b1d5b995e1c1958dd195908185b5bdd5b9d1cc819195c1bdcda5d195960221b6044820152606401610323565b849050955095509592505050565b60335460ff16611d0e5760405162461bcd60e51b815260206004820152601460248201527314185d5cd8589b194e881b9bdd081c185d5cd95960621b6044820152606401610323565b6033805460ff191690557f5db9ee0a495bf2e6ff9c91a7834c1ba4fdd244a5e8aa4e537bd38aeae4b073aa335b604051611d489190612ee8565b60405180910390a1565b6040516001600160a01b0380851660248301528316604482015260648101829052611dbd9085906323b872dd60e01b906084015b60408051601f198184030181529190526020810180516001600160e01b03166001600160e01b0319909316929092179091526127cc565b50505050565b60007f00000000000000000000000000000000000000000000000000000000000000006001600160a01b0316836001600160a01b03161415611e0757506001611e8f565b7f00000000000000000000000000000000000000000000000000000000000000006001600160a01b0316826001600160a01b03161415611e4957506000611e8f565b60405162461bcd60e51b815260206004820152601b60248201527a0dedcca40e0deded840e8ded6cadc40daeae6e840c4ca40ae8aa89602b1b6044820152606401610323565b92915050565b80471015611ee55760405162461bcd60e51b815260206004820152601d60248201527f416464726573733a20696e73756666696369656e742062616c616e63650000006044820152606401610323565b6000826001600160a01b03168260405160006040518083038185875af1925050503d8060008114611f32576040519150601f19603f3d011682016040523d82523d6000602084013e611f37565b606091505b5050905080611fab5760405162461bcd60e51b815260206004820152603a60248201527f416464726573733a20756e61626c6520746f2073656e642076616c75652c20726044820152791958da5c1a595b9d081b585e481a185d99481c995d995c9d195960321b6064820152608401610323565b505050565b611fab8363a9059cbb60e01b8484604051602401611d86929190612f16565b606580546001600160a01b038381166001600160a01b0319831681179093556040519116919082907f8be0079c531659141344cd1fd0a4f28419497f9722a3daafe3b4186f6b6457e090600090a35050565b600054610100900460ff166120485760405162461bcd60e51b81526004016103239061305f565b61205061289e565b6104b96128c5565b600054610100900460ff1661207f5760405162461bcd60e51b81526004016103239061305f565b61208761289e565b6104b96128f8565b60335460ff16156120b25760405162461bcd60e51b815260040161032390612f62565b6033805460ff191660011790557f62e78cea01bee320cd4e420270b5ea74000d11b0c9f74754ebdbfc544b05a258611d3b3390565b600080600080896001600160a01b0316630dfe16816040518163ffffffff1660e01b815260040160206040518083038186803b15801561212657600080fd5b505afa15801561213a573d6000803e3d6000fd5b505050506040513d601f19601f8201168201806040525081019061215e9190612c0b565b905060008a6001600160a01b031663d21220a76040518163ffffffff1660e01b815260040160206040518083038186803b15801561219b57600080fd5b505afa1580156121af573d6000803e3d6000fd5b505050506040513d601f19601f820116820180604052508101906121d39190612c0b565b905060006121e18383611dc3565b90508a1561229c57801561228757348b1461220e5760405162461bcd60e51b81526004016103239061301c565b7f00000000000000000000000000000000000000000000000000000000000000006001600160a01b031663d0e30db08c6040518263ffffffff1660e01b81526004016000604051808303818588803b15801561226957600080fd5b505af115801561227d573d6000803e3d6000fd5b505050505061229c565b61229c6001600160a01b03841633308e611d52565b89156123565780156122c2576122bd6001600160a01b03831633308d611d52565b612356565b348a146122e15760405162461bcd60e51b81526004016103239061301c565b7f00000000000000000000000000000000000000000000000000000000000000006001600160a01b031663d0e30db08b6040518263ffffffff1660e01b81526004016000604051808303818588803b15801561233c57600080fd5b505af1158015612350573d6000803e3d6000fd5b50505050505b6123628c8a8a8a61248c565b6040516370a0823160e01b81526000906001600160a01b038516906370a0823190612391903090600401612ee8565b60206040518083038186803b1580156123a957600080fd5b505afa1580156123bd573d6000803e3d6000fd5b505050506040513d601f19601f820116820180604052508101906123e19190612e43565b90506000836001600160a01b03166370a08231306040518263ffffffff1660e01b81526004016124119190612ee8565b60206040518083038186803b15801561242957600080fd5b505afa15801561243d573d6000803e3d6000fd5b505050506040513d601f19601f820116820180604052508101906124619190612e43565b905061246f8e838386612928565b809850819950829a50505050505050505096509650969350505050565b836001600160a01b03166316f0115b6040518163ffffffff1660e01b815260040160206040518083038186803b1580156124c557600080fd5b505afa1580156124d9573d6000803e3d6000fd5b505050506040513d601f19601f820116820180604052508101906124fd9190612c0b565b604051630251596160e31b81523060048201528415156024820152604481018490526001600160a01b03838116606483015260a06084830152600060a4830152919091169063128acb089060c4016040805180830381600087803b15801561256457600080fd5b505af1158015612578573d6000803e3d6000fd5b505050506040513d601f19601f8201168201806040525081019061259c9190612d83565b505050505050565b604051634c4a790d60e11b81526004810183905260248101829052600090819081906001600160a01b03871690639894f21a9060440160606040518083038186803b1580156125f257600080fd5b505afa158015612606573d6000803e3d6000fd5b505050506040513d601f19601f8201168201806040525081019061262a9190612e9f565b91945092509050828511156126c8576126c83361264785886130d9565b886001600160a01b0316630dfe16816040518163ffffffff1660e01b815260040160206040518083038186803b15801561268057600080fd5b505afa158015612694573d6000803e3d6000fd5b505050506040513d601f19601f820116820180604052508101906126b89190612c0b565b6001600160a01b03169190611fb0565b8184111561271757612717336126de84876130d9565b886001600160a01b031663d21220a76040518163ffffffff1660e01b815260040160206040518083038186803b15801561268057600080fd5b93509350939050565b600081846001600160a01b031663dd62ed3e30866040518363ffffffff1660e01b8152600401612751929190612efc565b60206040518083038186803b15801561276957600080fd5b505afa15801561277d573d6000803e3d6000fd5b505050506040513d601f19601f820116820180604052508101906127a19190612e43565b6127ab91906130c1565b9050611dbd8463095ea7b360e01b8584604051602401611d86929190612f16565b6000612821826040518060400160405280602081526020017f5361666545524332303a206c6f772d6c6576656c2063616c6c206661696c6564815250856001600160a01b0316612a759092919063ffffffff16565b805190915015611fab578080602001905181019061283f9190612c27565b611fab5760405162461bcd60e51b815260206004820152602a60248201527f5361666545524332303a204552433230206f7065726174696f6e20646964206e6044820152691bdd081cdd58d8d9595960b21b6064820152608401610323565b600054610100900460ff166104b95760405162461bcd60e51b81526004016103239061305f565b600054610100900460ff166128ec5760405162461bcd60e51b81526004016103239061305f565b6033805460ff19169055565b600054610100900460ff1661291f5760405162461bcd60e51b81526004016103239061305f565b6104b933611fcf565b604051634c4a790d60e11b81526004810184905260248101839052600090819081906001600160a01b03881690639894f21a9060440160606040518083038186803b15801561297657600080fd5b505afa15801561298a573d6000803e3d6000fd5b505050506040513d601f19601f820116820180604052508101906129ae9190612e9f565b9194509250905082861180156129c2575083155b15612a1357612a0e336129d585896130d9565b896001600160a01b0316630dfe16816040518163ffffffff1660e01b815260040160206040518083038186803b15801561268057600080fd5b612a6b565b8185118015612a1f5750835b15612a6b57612a6b33612a3284886130d9565b896001600160a01b031663d21220a76040518163ffffffff1660e01b815260040160206040518083038186803b15801561268057600080fd5b9450945094915050565b6060612a848484600085612a8e565b90505b9392505050565b606082471015612aef5760405162461bcd60e51b815260206004820152602660248201527f416464726573733a20696e73756666696369656e742062616c616e636520666f6044820152651c8818d85b1b60d21b6064820152608401610323565b843b612b3d5760405162461bcd60e51b815260206004820152601d60248201527f416464726573733a2063616c6c20746f206e6f6e2d636f6e74726163740000006044820152606401610323565b600080866001600160a01b03168587604051612b599190612ecc565b60006040518083038185875af1925050503d8060008114612b96576040519150601f19603f3d011682016040523d82523d6000602084013e612b9b565b606091505b5091509150612bab828286612bb6565b979650505050505050565b60608315612bc5575081612a87565b825115612bd55782518084602001fd5b8160405162461bcd60e51b81526004016103239190612f2f565b600060208284031215612c00578081fd5b8135612a8781613132565b600060208284031215612c1c578081fd5b8151612a8781613132565b600060208284031215612c38578081fd5b8151612a8781613147565b60008060008060008060008060006101208a8c031215612c61578485fd5b8935612c6c81613132565b985060208a0135975060408a0135965060608a0135612c8a81613147565b955060808a0135945060a08a0135612ca181613132565b935060c08a0135925060e08a013591506101008a0135612cc081613132565b809150509295985092959850929598565b600080600080600060a08688031215612ce8578081fd5b8535612cf381613132565b94506020860135935060408601359250606086013591506080860135612d1881613132565b809150509295509295909350565b60008060008060008060c08789031215612d3e578182fd5b8635612d4981613132565b95506020870135945060408701359350606087013592506080870135915060a0870135612d7581613132565b809150509295509295509295565b60008060408385031215612d95578182fd5b505080516020909101519092909150565b60008060008060608587031215612dbb578182fd5b843593506020850135925060408501356001600160401b0380821115612ddf578384fd5b818701915087601f830112612df2578384fd5b813581811115612e00578485fd5b886020828501011115612e11578485fd5b95989497505060200194505050565b600060208284031215612e31578081fd5b815162ffffff81168114612a87578182fd5b600060208284031215612e54578081fd5b5051919050565b600080600060608486031215612e6f578081fd5b83516020850151604086015191945092506001600160801b0381168114612e94578182fd5b809150509250925092565b600080600060608486031215612eb3578081fd5b8351925060208401519150604084015190509250925092565b60008251612ede8184602087016130f0565b9190910192915050565b6001600160a01b0391909116815260200190565b6001600160a01b0392831681529116602082015260400190565b6001600160a01b03929092168252602082015260400190565b6020815260008251806020840152612f4e8160408501602087016130f0565b601f01601f19169190910160400192915050565b60208082526010908201526f14185d5cd8589b194e881c185d5cd95960821b604082015260600190565b60208082526016908201527572656365697665642062656c6f77206d696e696d756d60501b604082015260600190565b6020808252818101527f4f776e61626c653a2063616c6c6572206973206e6f7420746865206f776e6572604082015260600190565b60208082526011908201527062656c6f77206d696e20616d6f756e747360781b604082015260600190565b60208082526023908201527f6d69736d61746368696e6720616d6f756e74206f662045544820666f7277617260408201526219195960ea1b606082015260800190565b6020808252602b908201527f496e697469616c697a61626c653a20636f6e7472616374206973206e6f74206960408201526a6e697469616c697a696e6760a81b606082015260800190565b9182526001600160a01b0316602082015260400190565b600082198211156130d4576130d461311c565b500190565b6000828210156130eb576130eb61311c565b500390565b60005b8381101561310b5781810151838201526020016130f3565b83811115611dbd5750506000910152565b634e487b7160e01b600052601160045260246000fd5b6001600160a01b0381168114610ad857600080fd5b8015158114610ad857600080fdfea264697066735822122034534e49aa2e5fa739159091b96347263606cfeca550d56dc4b7345cd2a74fd364736f6c63430008040033",
  "devdoc": {
    "kind": "dev",
    "methods": {
      "addLiquidity(address,uint256,uint256,uint256,uint256,address)": {
        "params": {
          "amount0Max": "the maximum amount of token0 msg.sender willing to input",
          "amount0Min": "the minimum amount of token0 actually input (slippage protection)",
          "amount1Max": "the maximum amount of token1 msg.sender willing to input",
          "amount1Min": "the minimum amount of token1 actually input (slippage protection)",
          "pool": "address of G-UNI pool to add liquidity to",
          "receiver": "account to receive minted G-UNI tokens"
        },
        "returns": {
          "amount0": "amount of token0 transferred from msg.sender to mint `mintAmount`",
          "amount1": "amount of token1 transferred from msg.sender to mint `mintAmount`",
          "mintAmount": "amount of G-UNI tokens minted and transferred to `receiver`"
        }
      },
      "owner()": {
        "details": "Returns the address of the current owner."
      },
      "paused()": {
        "details": "Returns true if the contract is paused, and false otherwise."
      },
      "rebalanceAndAddLiquidity(address,uint256,uint256,bool,uint256,uint160,uint256,uint256,address)": {
        "details": "because router performs a swap on behalf of msg.sender and slippage is possible some value unused in mint can be returned to msg.sender in token0 and token1 make sure to consult return values or measure balance changes after a rebalanceAndAddLiquidity call.",
        "params": {
          "amount0In": "the amount of token0 msg.sender forwards to router",
          "amount0Min": "the minimum amount of token0 actually deposited (slippage protection)",
          "amount1In": "the amount of token1 msg.sender forwards to router",
          "amount1Min": "the minimum amount of token1 actually deposited (slippage protection)",
          "pool": "address of G-UNI pool to add liquidity to",
          "receiver": "account to receive minted G-UNI tokens",
          "swapAmount": "the amount of token to swap",
          "swapThreshold": "the slippage parameter of the swap as a min or max sqrtPriceX96",
          "zeroForOne": "Which token to swap (true = token0, false = token1)"
        },
        "returns": {
          "amount0": "amount of token0 actually deposited into pool",
          "amount1": "amount of token1 actually deposited into pool",
          "mintAmount": "amount of G-UNI tokens minted and transferred to `receiver`"
        }
      },
      "removeLiquidity(address,uint256,uint256,uint256,address)": {
        "params": {
          "amount0Min": "Minimum amount of token0 received after burn (slippage protection)",
          "amount1Min": "Minimum amount of token1 received after burn (slippage protection)",
          "burnAmount": "The number of G-UNI tokens to burn",
          "receiver": "The account to receive the underlying amounts of token0 and token1"
        },
        "returns": {
          "amount0": "actual amount of token0 transferred to receiver for burning `burnAmount`",
          "amount1": "actual amount of token1 transferred to receiver for burning `burnAmount`",
          "liquidityBurned": "amount of liquidity removed from the underlying Uniswap V3 position"
        }
      },
      "renounceOwnership()": {
        "details": "Leaves the contract without owner. It will not be possible to call `onlyOwner` functions anymore. Can only be called by the current owner. NOTE: Renouncing ownership will leave the contract without an owner, thereby removing any functionality that is only available to the owner."
      },
      "transferOwnership(address)": {
        "details": "Transfers ownership of the contract to a new account (`newOwner`). Can only be called by the current owner."
      }
    },
    "version": 1
  },
  "userdoc": {
    "kind": "user",
    "methods": {
      "addLiquidity(address,uint256,uint256,uint256,uint256,address)": {
        "notice": "addLiquidity adds liquidity to G-UNI pool of interest (mints G-UNI LP tokens)"
      },
      "addLiquidityETH(address,uint256,uint256,uint256,uint256,address)": {
        "notice": "addLiquidityETH same as addLiquidity but expects ETH transfers (instead of WETH)"
      },
      "rebalanceAndAddLiquidity(address,uint256,uint256,bool,uint256,uint160,uint256,uint256,address)": {
        "notice": "rebalanceAndAddLiquidity accomplishes same task as addLiquidity/addLiquidityETH but msg.sender rebalances their holdings (performs a swap) before adding liquidity."
      },
      "rebalanceAndAddLiquidityETH(address,uint256,uint256,bool,uint256,uint160,uint256,uint256,address)": {
        "notice": "rebalanceAndAddLiquidityETH same as rebalanceAndAddLiquidity except this function expects ETH transfer (instead of WETH)"
      },
      "removeLiquidity(address,uint256,uint256,uint256,address)": {
        "notice": "removeLiquidity removes liquidity from a G-UNI pool and burns G-UNI LP tokens"
      },
      "removeLiquidityETH(address,uint256,uint256,uint256,address)": {
        "notice": "removeLiquidityETH same as removeLiquidity except this function unwraps WETH and sends ETH to receiver account"
      },
      "uniswapV3SwapCallback(int256,int256,bytes)": {
        "notice": "Uniswap v3 callback fn, called back on pool.swap"
      }
    },
    "version": 1
  },
  "storageLayout": {
    "storage": [
      {
        "astId": 132,
        "contract": "contracts/GUniRouter.sol:GUniRouter",
        "label": "_initialized",
        "offset": 0,
        "slot": "0",
        "type": "t_bool"
      },
      {
        "astId": 135,
        "contract": "contracts/GUniRouter.sol:GUniRouter",
        "label": "_initializing",
        "offset": 1,
        "slot": "0",
        "type": "t_bool"
      },
      {
        "astId": 600,
        "contract": "contracts/GUniRouter.sol:GUniRouter",
        "label": "__gap",
        "offset": 0,
        "slot": "1",
        "type": "t_array(t_uint256)50_storage"
      },
      {
        "astId": 220,
        "contract": "contracts/GUniRouter.sol:GUniRouter",
        "label": "_paused",
        "offset": 0,
        "slot": "51",
        "type": "t_bool"
      },
      {
        "astId": 311,
        "contract": "contracts/GUniRouter.sol:GUniRouter",
        "label": "__gap",
        "offset": 0,
        "slot": "52",
        "type": "t_array(t_uint256)49_storage"
      },
      {
        "astId": 10,
        "contract": "contracts/GUniRouter.sol:GUniRouter",
        "label": "_owner",
        "offset": 0,
        "slot": "101",
        "type": "t_address"
      },
      {
        "astId": 124,
        "contract": "contracts/GUniRouter.sol:GUniRouter",
        "label": "__gap",
        "offset": 0,
        "slot": "102",
        "type": "t_array(t_uint256)49_storage"
      }
    ],
    "types": {
      "t_address": {
        "encoding": "inplace",
        "label": "address",
        "numberOfBytes": "20"
      },
      "t_array(t_uint256)49_storage": {
        "base": "t_uint256",
        "encoding": "inplace",
        "label": "uint256[49]",
        "numberOfBytes": "1568"
      },
      "t_array(t_uint256)50_storage": {
        "base": "t_uint256",
        "encoding": "inplace",
        "label": "uint256[50]",
        "numberOfBytes": "1600"
      },
      "t_bool": {
        "encoding": "inplace",
        "label": "bool",
        "numberOfBytes": "1"
      },
      "t_uint256": {
        "encoding": "inplace",
        "label": "uint256",
        "numberOfBytes": "32"
      }
    }
  }
}